S01700004763634170706C69636174696F6E312E737265635B
S11300000C9434000C9451000C9451000C94510045
S11300100C9451000C9451000C9451000C94510018
S11300200C9451000C9451000C9451000C942B012D
S11300300C9451000C9451000C9451000C945100F8
S11300400C9451000C9451000C9451000C945100E8
S11300500C9451000C9451000C9451000C945100D8
S11300600C9451000C94510011241FBECFEFD8E022
S1130070DEBFCDBF11E0A0E0B1E0E6EAF6E002C0E9
S113008005900D92AA32B107D9F721E0AAE2B1E0B6
S113009001C01D92A133B207E1F70E94E8020C945B
S11300A051030C9400008093BB0084E88093BC004F
S11300B0ECEBF0E080818823ECF7089584EC8093E6
S11300C0BC00ECEBF0E080818823ECF78091BB006E
S11300D0089584E88093BC00ECEBF0E080818823F1
S11300E0ECF78091BB00089584EA8093BC00ECEBAC
S11300F0F0E080818823ECF7089584E98093BC00C4
S1130100ECEBF0E0808184FDFDCF089588E09DE371
S11301109093890080938800789480E8809380008D
S11301208BE080938100109285001092840082E01D
S113013080936F0008951092C50087E68093C400F1
S113014088E18093C10086E08093C2000895E4E6CC
S1130150F0E080818F7780838CE08093B8001092E8
S1130160B90008951F93CF93DF93182FD62FC42F70
S11301700E947400812F880F0E9453008D2F0E94CB
S113018053008C2F0E9453000E947D00DF91CF9179
S11301901F910895AF92BF92CF92DF92EF92FF9298
S11301A00F931F93CF93DF93C82FD62F6A01E22EAC
S11301B00E9474008C2F880F0E9453008D2F0E9480
S11301C053000E9474008C2F880F81600E9453009A
S11301D080E090E0F12CAE2CBF2C16C08C010F5F98
S11301E01F4FE016F10641F0E601C80FD91F0E9427
S11301F05E008883C80108C0E601C80FD91F0E94A9
S1130200690088838A2D9B2D8E159F053CF30E94DF
S11302107D00DF91CF911F910F91FF90EF90DF90C0
S1130220CF90BF90AF900895E0ECF0E0908195FFFF
S1130230FDCF8093C6000895CF93DF93EC018881AE
S1130240882331F021960E94140189918111FBCFFA
S1130250DF91CF9108951F920F920FB60F92112440
S1130260CF92DF92EF92FF920F931F932F933F93BE
S11302704F935F936F937F938F939F93AF93BF93AA
S1130280EF93FF93CF93DF93CDB7DEB76497DEBFD1
S1130290CDBF80E091E00E941C0125E0AE014F5FDC
S11302A05F4F68EA70E08EE10E94CA00CA80D12CD8
S11302B0DC2CCC248981C82AEC80F12CFE2CEE2481
S11302C08B81E82A0E8110E0102F00278D81082BE6
S11302D086E091E00E941C0184E091E00E941C01F0
S11302E04AE06AE271E0C6010E941C038AE291E0DE
S11302F00E941C0189E091E00E941C018CE091E0C5
S11303000E941C0184E091E00E941C014AE06AE220
S113031071E0C7010E941C038AE291E00E941C0163
S113032089E091E00E941C018FE091E00E941C0191
S113033084E091E00E941C014AE06AE271E0C80195
S11303400E941C038AE291E00E941C0189E091E072
S11303500E941C0182E191E00E941C012AE230E526
S11303608EEF90E02150304080409040D9F700005B
S113037085E191E00E941C0125E0AE014A5F5F4FD8
S113038068E870E08EE10E94CA00CF80D12CDC2C9A
S1130390CC248E81C82AE984F12CFE2CEE24888595
S11303A0E82A0B8510E0102F00278A85082B86E0A9
S11303B091E00E941C0184E091E00E941C014AE04B
S11303C06AE271E0C6010E941C038AE291E00E9485
S11303D01C0189E091E00E941C018CE091E00E94E4
S11303E01C0184E091E00E941C014AE06AE271E091
S11303F0C7010E941C038AE291E00E941C0189E06B
S113040091E00E941C018FE091E00E941C0184E0B5
S113041091E00E941C014AE06AE271E0C8010E9476
S11304201C038AE291E00E941C0189E091E00E9491
S11304301C0182E191E00E941C012AE230E58EEF6A
S113044090E02150304080409040D9F700008BE18B
S113045091E00E941C0125E0AE01455F5F4F68EA10
S113046070E08AE60E94CA00CC84D12CDC2CCC2417
S11304708B85C82AEE84F12CFE2CEE248D85E82A87
S1130480088910E0102F00278F85082B86E091E063
S11304900E941C0184E091E00E941C014AE06AE28F
S11304A071E0C6010E941C038AE291E00E941C01D3
S11304B089E091E00E941C018CE091E00E941C0103
S11304C084E091E00E941C014AE06AE271E0C70105
S11304D00E941C038AE291E00E941C0189E091E0E1
S11304E00E941C018FE091E00E941C0184E091E0D5
S11304F00E941C014AE06AE271E0C8010E941C03E8
S11305008AE291E00E941C0189E091E00E941C01B2
S113051082E191E00E941C012AE230E58EEF90E036
S11305202150304080409040D9F7000082E291E0B1
S11305300E941C0122E0AE01405F5F4F68EA70E058
S11305408CE50E94CA00098910E0102F00278889D1
S1130550082B84E091E00E941C014AE06AE271E009
S1130560C8010E941C038AE291E00E941C0189E0F8
S113057091E00E941C0182E191E00E941C012AEAA0
S113058031E28FEE99E02150304080409040D9F71D
S1130590000064960FB6F894DEBF0FBECDBFDF91A6
S11305A0CF91FF91EF91BF91AF919F918F917F91E7
S11305B06F915F914F913F912F911F910F91FF90F8
S11305C0EF90DF90CF900F900FBE0F901F90189573
S11305D00E949B000E94A7004FE660E28AE60E9408
S11305E0B20040E063E28AE60E94B20040E069E3C0
S11305F08AE60E94B20040E061E28EE10E94B2000D
S113060047E560E28EE10E94B20044E664E28EE1D6
S11306100E94B20040E265E28EE10E94B20040E036
S113062066E28EE10E94B20040EB60E28CE50E943B
S1130630B2000E948600FFCFBB274A3031F49923D1
S113064022F4BDE2909581959F4F0C942803BB271B
S1130650FB015527AA27880F991FAA1FA41710F07A
S1130660A41B83955051B9F7A05DAA3308F0A95D86
S1130670A193009779F7B111B1931192CB010C9426
S11306804103DC01FC01672F71917723E1F7329775
S113069004C07C916D9370836291AE17BF07C8F359
S10906A00895F894FFCF59
S11306A64163633A2000583A00090900593A005A4E
S11306B63A000A0D004D61673A20004779726F3A95
S10D06C620004261726F3A20000028
S90300E814
